{
  "_format": "hh-sol-artifact-1",
  "contractName": "Registration",
  "sourceName": "contracts/Medicare_claims.sol",
  "abi": [
    {
      "inputs": [],
      "stateMutability": "nonpayable",
      "type": "constructor"
    },
    {
      "anonymous": false,
      "inputs": [
        {
          "indexed": true,
          "internalType": "address",
          "name": "insuranceCompany",
          "type": "address"
        }
      ],
      "name": "InsuranceCompanyRegistered",
      "type": "event"
    },
    {
      "anonymous": false,
      "inputs": [
        {
          "indexed": true,
          "internalType": "address",
          "name": "patient",
          "type": "address"
        }
      ],
      "name": "PatientRegistered",
      "type": "event"
    },
    {
      "anonymous": false,
      "inputs": [
        {
          "indexed": true,
          "internalType": "address",
          "name": "pharmacy",
          "type": "address"
        }
      ],
      "name": "PharmacyRegistered",
      "type": "event"
    },
    {
      "anonymous": false,
      "inputs": [
        {
          "indexed": true,
          "internalType": "address",
          "name": "physician",
          "type": "address"
        }
      ],
      "name": "PhysicianRegistered",
      "type": "event"
    },
    {
      "inputs": [
        {
          "internalType": "address",
          "name": "_insuranceCompany",
          "type": "address"
        }
      ],
      "name": "InsuranceCompanyRegistration",
      "outputs": [],
      "stateMutability": "nonpayable",
      "type": "function"
    },
    {
      "inputs": [
        {
          "internalType": "address",
          "name": "_patient",
          "type": "address"
        }
      ],
      "name": "PatientRegistration",
      "outputs": [],
      "stateMutability": "nonpayable",
      "type": "function"
    },
    {
      "inputs": [
        {
          "internalType": "address",
          "name": "_pharmacy",
          "type": "address"
        }
      ],
      "name": "PharmacyRegistration",
      "outputs": [],
      "stateMutability": "nonpayable",
      "type": "function"
    },
    {
      "inputs": [
        {
          "internalType": "address",
          "name": "_Physician",
          "type": "address"
        }
      ],
      "name": "PhysicianRegistration",
      "outputs": [],
      "stateMutability": "nonpayable",
      "type": "function"
    },
    {
      "inputs": [
        {
          "internalType": "address",
          "name": "",
          "type": "address"
        }
      ],
      "name": "insuranceCompanies",
      "outputs": [
        {
          "internalType": "bool",
          "name": "",
          "type": "bool"
        }
      ],
      "stateMutability": "view",
      "type": "function"
    },
    {
      "inputs": [
        {
          "internalType": "address",
          "name": "",
          "type": "address"
        }
      ],
      "name": "patients",
      "outputs": [
        {
          "internalType": "bool",
          "name": "",
          "type": "bool"
        }
      ],
      "stateMutability": "view",
      "type": "function"
    },
    {
      "inputs": [
        {
          "internalType": "address",
          "name": "",
          "type": "address"
        }
      ],
      "name": "pharmacies",
      "outputs": [
        {
          "internalType": "bool",
          "name": "",
          "type": "bool"
        }
      ],
      "stateMutability": "view",
      "type": "function"
    },
    {
      "inputs": [
        {
          "internalType": "address",
          "name": "",
          "type": "address"
        }
      ],
      "name": "physicians",
      "outputs": [
        {
          "internalType": "bool",
          "name": "",
          "type": "bool"
        }
      ],
      "stateMutability": "view",
      "type": "function"
    },
    {
      "inputs": [],
      "name": "regulatory_authority",
      "outputs": [
        {
          "internalType": "address",
          "name": "",
          "type": "address"
        }
      ],
      "stateMutability": "view",
      "type": "function"
    }
  ],
  "bytecode": "0x608060405234801561001057600080fd5b50336000806101000a81548173ffffffffffffffffffffffffffffffffffffffff021916908373ffffffffffffffffffffffffffffffffffffffff160217905550610d0c806100606000396000f3fe608060405234801561001057600080fd5b50600436106100935760003560e01c806376fe88301161006657806376fe88301461011e5780637e3332af1461014e5780638ff18b6d1461016a578063b6f28a6c14610186578063e669845a146101b657610093565b80630869cfbc146100985780630b2361f5146100c857806326a0f727146100e65780632aae28b814610102575b600080fd5b6100b260048036038101906100ad91906109d0565b6101e6565b6040516100bf9190610a18565b60405180910390f35b6100d0610206565b6040516100dd9190610a42565b60405180910390f35b61010060048036038101906100fb91906109d0565b61022a565b005b61011c600480360381019061011791906109d0565b6103e3565b005b610138600480360381019061013391906109d0565b61059c565b6040516101459190610a18565b60405180910390f35b610168600480360381019061016391906109d0565b6105bc565b005b610184600480360381019061017f91906109d0565b610775565b005b6101a0600480360381019061019b91906109d0565b61092d565b6040516101ad9190610a18565b60405180910390f35b6101d060048036038101906101cb91906109d0565b61094d565b6040516101dd9190610a18565b60405180910390f35b60016020528060005260406000206000915054906101000a900460ff1681565b60008054906101000a900473ffffffffffffffffffffffffffffffffffffffff1681565b60008054906101000a900473ffffffffffffffffffffffffffffffffffffffff1673ffffffffffffffffffffffffffffffffffffffff163373ffffffffffffffffffffffffffffffffffffffff16146102b8576040517f08c379a00000000000000000000000000000000000000000000000000000000081526004016102af90610ae0565b60405180910390fd5b600260008273ffffffffffffffffffffffffffffffffffffffff1673ffffffffffffffffffffffffffffffffffffffff16815260200190815260200160002060009054906101000a900460ff1615610345576040517f08c379a000000000000000000000000000000000000000000000000000000000815260040161033c90610b72565b60405180910390fd5b6001600260008373ffffffffffffffffffffffffffffffffffffffff1673ffffffffffffffffffffffffffffffffffffffff16815260200190815260200160002060006101000a81548160ff0219169083151502179055508073ffffffffffffffffffffffffffffffffffffffff167fb4da560d4d30e3051cf5dcbd56d3d0361894d9abfaeed0975208083af1c5b05660405160405180910390a250565b60008054906101000a900473ffffffffffffffffffffffffffffffffffffffff1673ffffffffffffffffffffffffffffffffffffffff163373ffffffffffffffffffffffffffffffffffffffff1614610471576040517f08c379a000000000000000000000000000000000000000000000000000000000815260040161046890610ae0565b60405180910390fd5b600460008273ffffffffffffffffffffffffffffffffffffffff1673ffffffffffffffffffffffffffffffffffffffff16815260200190815260200160002060009054906101000a900460ff16156104fe576040517f08c379a00000000000000000000000000000000000000000000000000000000081526004016104f590610bde565b60405180910390fd5b6001600460008373ffffffffffffffffffffffffffffffffffffffff1673ffffffffffffffffffffffffffffffffffffffff16815260200190815260200160002060006101000a81548160ff0219169083151502179055508073ffffffffffffffffffffffffffffffffffffffff167f1790d2915e4c45acea19ac4c15c61503a1428ec4921958b23af77114039c480160405160405180910390a250565b60046020528060005260406000206000915054906101000a900460ff1681565b60008054906101000a900473ffffffffffffffffffffffffffffffffffffffff1673ffffffffffffffffffffffffffffffffffffffff163373ffffffffffffffffffffffffffffffffffffffff161461064a576040517f08c379a000000000000000000000000000000000000000000000000000000000815260040161064190610ae0565b60405180910390fd5b600360008273ffffffffffffffffffffffffffffffffffffffff1673ffffffffffffffffffffffffffffffffffffffff16815260200190815260200160002060009054906101000a900460ff16156106d7576040517f08c379a00000000000000000000000000000000000000000000000000000000081526004016106ce90610c4a565b60405180910390fd5b6001600360008373ffffffffffffffffffffffffffffffffffffffff1673ffffffffffffffffffffffffffffffffffffffff16815260200190815260200160002060006101000a81548160ff0219169083151502179055508073ffffffffffffffffffffffffffffffffffffffff167f1a86e8aad98ac1d9acc0ea97f3bf51cdea37bdde23f43acc7d3cd191119296dc60405160405180910390a250565b60008054906101000a900473ffffffffffffffffffffffffffffffffffffffff1673ffffffffffffffffffffffffffffffffffffffff163373ffffffffffffffffffffffffffffffffffffffff1614610803576040517f08c379a00000000000000000000000000000000000000000000000000000000081526004016107fa90610ae0565b60405180910390fd5b600160008273ffffffffffffffffffffffffffffffffffffffff1673ffffffffffffffffffffffffffffffffffffffff16815260200190815260200160002060009054906101000a900460ff1615610890576040517f08c379a000000000000000000000000000000000000000000000000000000000815260040161088790610cb6565b60405180910390fd5b60018060008373ffffffffffffffffffffffffffffffffffffffff1673ffffffffffffffffffffffffffffffffffffffff16815260200190815260200160002060006101000a81548160ff0219169083151502179055508073ffffffffffffffffffffffffffffffffffffffff167fc9fa2003fca4ce0dfc8cb0deae32266b715536df6685365b05b5be96ede8e49c60405160405180910390a250565b60026020528060005260406000206000915054906101000a900460ff1681565b60036020528060005260406000206000915054906101000a900460ff1681565b600080fd5b600073ffffffffffffffffffffffffffffffffffffffff82169050919050565b600061099d82610972565b9050919050565b6109ad81610992565b81146109b857600080fd5b50565b6000813590506109ca816109a4565b92915050565b6000602082840312156109e6576109e561096d565b5b60006109f4848285016109bb565b91505092915050565b60008115159050919050565b610a12816109fd565b82525050565b6000602082019050610a2d6000830184610a09565b92915050565b610a3c81610992565b82525050565b6000602082019050610a576000830184610a33565b92915050565b600082825260208201905092915050565b7f4f6e6c7920726567756c61746f727920617574686f726974792063616e20726560008201527f6769737465720000000000000000000000000000000000000000000000000000602082015250565b6000610aca602683610a5d565b9150610ad582610a6e565b604082019050919050565b60006020820190508181036000830152610af981610abd565b9050919050565b7f496e737572616e636520636f6d70616e7920616c72656164792072656769737460008201527f6572656400000000000000000000000000000000000000000000000000000000602082015250565b6000610b5c602483610a5d565b9150610b6782610b00565b604082019050919050565b60006020820190508181036000830152610b8b81610b4f565b9050919050565b7f506861726d61637920616c726561647920726567697374657265640000000000600082015250565b6000610bc8601b83610a5d565b9150610bd382610b92565b602082019050919050565b60006020820190508181036000830152610bf781610bbb565b9050919050565b7f50687973696369616e20616c7265616479207265676973746572656400000000600082015250565b6000610c34601c83610a5d565b9150610c3f82610bfe565b602082019050919050565b60006020820190508181036000830152610c6381610c27565b9050919050565b7f50617469656e7420616c72656164792072656769737465726564000000000000600082015250565b6000610ca0601a83610a5d565b9150610cab82610c6a565b602082019050919050565b60006020820190508181036000830152610ccf81610c93565b905091905056fea26469706673582212207cf5b116de31e79eb7b17eb1bb31ce5c9268533688ca2c1d051b4cb28cfaeec564736f6c634300080f0033",
  "linkReferences": {},
  "deployedLinkReferences": {}
}